:020000022000DC
:1070000000000420A1040400E1040400E3040400DF
:10701000E5040400E7040400E904040000000000A3
:107020000000000000000000000000001D0404003B
:10703000ED040400000000003D040400F10404001D
:10704000F9060400F3040400F30404001D9B02008D
:10705000D19B0200F304040095DE0300F304040056
:10706000F3040400F3040400F3040400F304040034
:10707000F3040400F3040400F3040400F304040024
:10708000F30404006D010400F3040400F30404009D
:10709000F3040400F304040091680300F304040003
:1070A000F3040400F3040400F3040400F3040400F4
:1070B000F3040400F30404000000000000000000DA
:1070C000F3040400F3040400F3040400F10D0400CD
:1070D000F3040400F3040400F30404008DD7020059
:1070E000F30404002D0C0400F3040400000000006D
:1070F00000000000F304040000000000690E04001A
:10710000000000000000000000000000000000007F
:10711000000000000000000000000000000000006F
:10712000000000000000000000000000000000005F
:10713000000000000000000000000000000000004F
:10714000000000000000000000000000000000003F
:10715000000000000000000000000000000000002F
:10716000000000000000000000000000000000001F
:10717000000000000000000000000000000000000F
:1071800000000000000000000000000000000000FF
:1071900000000000000000000000000000000000EF
:1071A00000000000000000000000000000000000DF
:1071B00000000000000000000000000000000000CF
:1071C00000000000000000000000000000000000BF
:1071D00000000000000000000000000000000000AF
:1071E000000000000000000000000000000000009F
:1071F000000000000000000000000000000000008F
:10720000F1EE103A43F08073E1EE103A704700BFA0
:1072100010B5054C237833B9044B13B10448AFF3D0
:1072200000800123237010BD706300200000000067
:10723000ACD8040008B5034B1BB103490348AFF3B6
:10724000008008BD0000000074630020ACD804007A
:10725000154B002B08BF134B9D46A3F5803A002128
:107260008B460F461348144A121A1FF08FFD0F4B1E
:10727000002B00D098470E4B002B00D098470020E1
:10728000002104000D000D48002802D00C48AFF387
:1072900000801FF0BFFC2000290019F059F91FF0F1
:1072A00093FC00BF00000800000004200000000064
:1072B000000000007063002010AF002000000000FC
:1072C0000000000000207047704700BF037C13F0EF
:1072D000080306D0C36A406A181A48BF6FF000401E
:1072E00070471846704700BF014804F011BE00BF48
:1072F000F473002010B51446630A0A460146044898
:1073000004F028FE002814BF20464FF0FF3010BDC7
:10731000F473002010B51446630A0A460146044877
:1073200004F04CFE002814BF20464FF0FF3010BD83
:10733000F4730020103003F063B900BF103003F085
:107340005BB800BF00B583B001220DF1070110301A
:1073500002F080FF01280CBF9DF807004FF0FF30BE
:1073600003B05DF804FB00BF103003F0ADB900BFFF
:1073700000B583B00B4601220DF1070110308DF8E6
:10738000073003F0A1F903B05DF804FB10B5044623
:1073900019F022F9204610BD10B5ADF5925D4FF4FD
:1073A00080530093254890AB0022012101F0B6FEE6
:1073B00060B123490446234816F07AFA2148214651
:1073C0000A2216F02BFC19F047FEFCE71E490122A9
:1073D00004A801F07DFD044658B11C49194816F077
:1073E00067FA184821460A2216F018FC19F034FEF4
:1073F000FCE71749134816F0EBFA164801F09AFD1E
:10740000024668B1144903900E4816F051FA039AE7
:107410000C4811460A2216F001FC19F01DFEFCE78B
:10742000094901F055FD0D4804F072FD0C4905486D
:1074300016F0CEFA0DF5925D10BD00BF94B50400B4
:10744000149C0400687600203C9C0400409C0400CE
:10745000689C04008C9C0400989C0400F473002039
:10746000C49C040000B5ADF26C4D002316498DF8A4
:10747000073068460122ADF844348DF8463404F0F4
:107480008FF880B10DF2444002F0D4FD69460DF250
:10749000444002F0C1FE70B10C4BC3F800D00DF2B5
:1074A0006C4D5DF804FB034602460749684604F04C
:1074B00077F80028E6D10649064816F089FA012037
:1074C00016F038FDFBE700BFF47300206076002063
:1074D000D89C040068760020002070470020704788
:1074E000084608B511460246034804F033FD80F013
:1074F0000100C0B208BD00BFF4730020084608B503
:1075000011460246034804F059FD80F00100C0B264
:1075100008BD00BFF473002038B51446032919D8FC
:10752000DFE801F0060C130208231360002038BDC9
:107530000D46094804F0ECFC284638BD074804F025
:10754000E3FF400A2060002038BD4FF40073138031
:10755000002038BD042038BDF4730020F8730020EB
:1075600070B5012282B096499648974D04F0FCFD13
:107570009649974816F09CF9964804F0C9FF1022E6
:107580000146934816F07CFB9349914816F090F918
:10759000904804F0B9FF1EF0C9FD904B00221EF088
:1075A0003FFE41EC100B0221894816F0E1F98C49AD
:1075B000874816F07DFA8B49854816F079FA81499B
:1075C00028460023012203F0EBFF002800F09680FC
:1075D000854802F02FFD7C4901F2444002F01CFE78
:1075E000002800F09480814B814E1D6081497848CD
:1075F0000123337016F05CFAEC69013C03D0287962
:10760000002840F0C3807C49714816F051FA714857
:1076100004F07AFF440A7948002105F0EDFD0028C6
:1076200000F0A0807648012105F050FF754B0093D3
:10763000754A764B7248002105F04CFF2CB965481D
:1076400004F062FF002840F09780624804F05CFF7D
:10765000002800F08C806A484FF400732246002115
:1076600005F044FF6A4B6B4A6548009300216A4B62
:1076700005F04CFF62480122002105F041FF6048FF
:1076800005F050FF08F0BAFF18BB5CB363495048DF
:1076900016F03CF920461EF049FD00224FF07D53C4
:1076A0001EF0BEFD41EC100B0221494816F060F9B6
:1076B0004B49474816F0FCF95949454816F0F8F986
:1076C0003378A3B95749424802B0BDE8704016F07C
:1076D000EFB908F0A3FF0A2016F02CFC08F0A8FF71
:1076E000002CD3D150493A4816F0E2F9E4E74F496B
:1076F000374802B0BDE8704016F0DAB903460246DA
:107700003049284603F04CFF00287FF461AF384E23
:1077100047492F480023337016F0CAF945492C48D1
:1077200016F0C6F944492A4816F0C2F943492848D8
:1077300016F0BEF94249264816F0BAF93D492448E8
:1077400016F0B6F9234804F0DFFE3E49044620480F
:1077500016F0AEF929480021640A05F04DFD002815
:107760007FF460AF0146254805F0ECFC5AE7364946
:10777000174816F09DF96EE7164804F0C5FE334928
:1077800004461348640A16F093F964E704FB00F416
:107790002F490F4816F0BAF820461EF0C7FC002209
:1077A0004FF07D531EF03CFD41EC100B02210848C8
:1077B00016F0DEF80A49064816F07AF92BE700BF02
:1077C00004A60400F47300208C6F00200C9D0400BC
:1077D00068760020F8730020249D04000000B03E6D
:1077E000349D0400389D0400D07300206076002092
:1077F0001C740020749D0400809F04008876002083
:1078000054740020E89F0400E09F0400D49F04000B
:10781000E9720200F57202001573020074A0040000
:10782000E4A0040000A10400A0A004005CA10400E6
:10783000A49D0400EC9D0400349E0400789E040086
:10784000C89E0400149F040030A00400EC9F0400B4
:10785000649F04002DE9F04F5F4F3B688FB0002B11
:1078600000F0A6805D495E485E4C16F04FF80A2293
:1078700039685B4816F036FA5B49594816F018F932
:1078800001210D2019F038FF00234FF47A71029383
:10789000ADF814308DF81630039144F20223534AA8
:1078A0005349019405A802F0AFFC9DF81430002B59
:1078B00079D00C9B002B00F086803B68642B7ED037
:1078C000002B62DD4FF0000ADFF844B1DFF844918D
:1078D000484D00264FF064080AEB060289FB02318E
:1078E000D317C3EB611308FB1323C3EBC3030BEBE9
:1078F00083045BF823100A2201A816F0B5F9294683
:1079000001A816F003F860681EF032FC41EC100B81
:10791000012101A816F02CF8294601A815F0F6FF60
:10792000A0681EF025FC41EC100B012101A816F007
:107930001FF8294601A815F0E9FFE0681EF018FCC1
:1079400041EC100B012101A816F012F8294601A8FC
:1079500015F0DCFF0A22216901A816F0C3F92946B7
:1079600001A815F0D3FF0A22616901A816F0BAF93F
:10797000294601A815F0CAFFA1690A2201A816F03C
:107980004DF93B680136B342A6DC05A802F052FB74
:107990001949134816F08CF800210D2019F0ACFE9F
:1079A0000FB0BDE8F08F15490D4816F081F8F3E7E8
:1079B00013490B4816F07CF80FB0BDE8F08F114B5F
:1079C000D3F800A080E71049054816F071F80F4978
:1079D00001A816F06DF870E748740020A8A1040013
:1079E00068760020E8A50400B0A10400C8A1040046
:1079F0008C6F00201CA2040020A2040038A2040006
:107A000088A1040098640020D4A10400F4A104001B
:107A10009C6400201F85EB51F8B50121072019F067
:107A2000E7FD0121082019F0E3FD0121082019F0EC
:107A300063FE0121072019F05FFE01210C2019F0DF
:107A4000D7FD01210B2019F0D3FD01210D2019F0E4
:107A5000CFFD01210C2019F04FFE01210B2019F060
:107A60004BFE01210D2019F047FE6F484FF4E13124
:107A7000064605F05DFA16F051FA40F6B7370546AE
:107A800015E016F04BFA03465B1BBB424FF00101B9
:107A90004FF00B0011D819F02FFE0A2016F04AFA09
:107AA0000B20214619F028FE0A2016F043FA304632
:107AB00005F056FA04460028E3D000210C2019F006
:107AC0001BFE5A49584815F0F3FF594801F01EFFB4
:107AD000FFF746FD16F022FA40F6B73504460BE0F4
:107AE00019F00AFE642016F025FA0B20002119F087
:107AF00003FE642016F01EFA16F010FA03461B1B54
:107B0000AB424FF001014FF00B00E9D9494946481B
:107B100015F0CEFF48480BF04DFD00287ED04749B8
:107B2000414815F0C5FF16F0F9F940F6B73504469F
:107B30000BE019F0E1FD642016F0FCF90D200021A6
:107B400019F0DAFD642016F0F5F916F0E7F90346AE
:107B50001B1BAB424FF001014FF00D00E9D9384932
:107B6000314815F0A5FF0022012136480EF040FCF7
:107B70001022092133480DF049FA042131480EF052
:107B8000E1FD3149314819220EF0D8FE1B2230495F
:107B90002E480EF0CFFE2D480EF00AFF2D480EF0B5
:107BA000CFFF06212C480BF0B5FF2B480BF09AFFB6
:107BB00040F2C23128480BF0C1FF264926480BF09D
:107BC0004DFF25480BF060FF234801210BF0E8FF33
:107BD000F422214820210BF0DFFF1F481E210BF06B
:107BE000D9FF00211C480CF03BF81C490E4815F049
:107BF0005FFF1B490C4815F05BFF1A490A4815F056
:107C000057FF1949084815F053FF1849064815F061
:107C10004FFFBDE8F840044815F02ABF1449024858
:107C200015F046FF7FE700BF6876002060A20400E1
:107C3000C074002080A2040020740020A0A20400D0
:107C4000C4A20400E08A0020E4A204009C63002097
:107C500000A30400E4630020209100201CA3040082
:107C60000C9E040038A3040054A3040070A3040075
:107C7000B4A2040070B5194E194D1A481A4C6A2264
:107C800000210BF03FFB304604F04CFF3146284604
:107C9000012204F055FA1549154E224628461EF0D9
:107CA000FDF8144B1448154D0022DA71A3F8442452
:107CB00083F8462405F0F8FB30460EF043FE2246DA
:107CC0000F4930461EF0EAF828460EF0E1FE224643
:107CD00028460C49BDE870401EF0E0B80C74002046
:107CE000F47300202074002000600020C97202009C
:107CF0009C6300208C6F002054740020E4630020FB
:107D000059800200318002002DE9F047AC4C2DED86
:107D1000028B16F003F923681433984209D2A9485C
:107D200004F026FF002840F0C080BDEC028BBDE8C7
:107D3000F08716F0F3F8A44B2060A3FB00239B0907
:107D400040F6B83202FB1303642B00F2EF809F4B26
:107D50001B78002B40F0C3809D480EF067FD002883
:107D600040F0B880002019F015FC9A4D9FED9A8ADA
:107D70009A4F9B4EDFF8A8A2DFF8A882DFF8A892FE
:107D8000034698482B600BF0B3FB20EE080A954899
:107D900087ED000A0BF0E4FA20EE080A914886ED20
:107DA000000A0BF041FBDFF884C28F48DCF80020AA
:107DB0002168C2EBC20400EB840340F82410306851
:107DC00098600132DAF80000186120EE080A632A90
:107DD000D8F80000D8BFCCF800205861834A286842
:107DE0003C6883ED030A98615C60C4BF0023CCF853
:107DF00000301368734889ED000A632BDCBF013340
:107E000013600A2215F030FF2C216E4815F0ACFDEE
:107E100038681EF0ADF941EC100B0121694815F0EE
:107E2000A7FD2C21674815F09FFD30681EF0A0F9D2
:107E300041EC100B0121634815F09AFD2C2161489B
:107E400015F092FDD9F800001EF092F941EC100BEC
:107E500001215C4815F08CFD2C215A4815F084FD59
:107E60000A22DAF80010574815F03CFF2C2155483B
:107E700015F07AFD0A22D8F80010524815F032FFAA
:107E80002C21504815F070FD29684E480A2215F043
:107E900029FF4C4815F0ECFD4A4804F0A5FE49487E
:107EA00004F066FE00283FF440AF464804F086FE2A
:107EB000C0B2582847D0532877D0422814D04C4914
:107EC000404815F085FDBDEC028B3E48BDE8F0470B
:107ED00004F08ABE00210C2019F00EFC42E70021BC
:107EE0000D2019F009FC37E74249364815F070FDBE
:107EF000642016F01FF81A213F480EF0DBFD052024
:107F000016F018F83C480EF0FFFD052016F012F8A8
:107F10006E2139480EF0CEFD052016F00BF8BDECB1
:107F2000028B3548BDE8F0470EF0EEBD01210D2073
:107F300019F0E2FB01210C2019F0DEFB01210B20DE
:107F400019F0DAFB0EE71F482C4E2D4D47F2305149
:107F5000044615F087FF3146204615F039FD2946C5
:107F6000204615F035FD2749204615F031FD2649FC
:107F7000204615F02DFD2549204615F029FD244900
:107F8000204615F071FF0028E5D022490D4815F074
:107F90001FFDFFF701FAFFF765FABDEC028B1E49E2
:107FA0000848BDE8F04715F013BD1C49054815F019
:107FB0000FFDBDEC028BBDE8F047FFF74BBC00BFE7
:107FC0008C63002068760020F11976051C7400206F
:107FD000E08A0020187400200AE81C419063002009
:107FE00094630020207400209C64002048740020CA
:107FF000C8A50400A8A50400E463002094A304001D
:10800000DCA3040034A4040064A40400B0A40400AD
:10801000F8A40400FCA4040040A5040080A504000A
:108020004C74002050740020986300209864002055
:1080300010B5074B044640F8543B0BF067FF204651
:10804000044B40F8083B0DF0FFFE204610BD00BF7A
:1080500010AE040084AC040010B5044B044640F894
:10806000083B0DF0F1FE204610BD00BF84AC0400BB
:1080700070B5C3780D4682B0044600F1300163B993
:108080002A4660780123FFF72BFA00281CBF012045
:108090004FF0FF35E56202B070BDC26A40780191D1
:1080A0000123FFF72BFA88B9E66A236AA2690199CE
:1080B000E070F31A9342E3D2A378022BE0D1607808
:1080C00032440123FFF71AFA0199D9E7012002B0DF
:1080D00070BD00BF4FF0FF330022994210B5044637
:1080E000C270C36202D0FFF7C3FFD0BB94F82F1257
:1080F00094F82E324AF6552243EA012393422CD1BA
:1081000094F83030EB2B05D01833DBB2012B01D9BA
:10811000022010BD94F86630462B07D194F86730E2
:10812000412B03D194F86830542B18D094F8823046
:10813000462BEDD194F88330412BE9D194F884306B
:10814000542BE5D194F88530332BE1D194F8863067
:10815000322B14BF0220002010BD032010BD0020D0
:1081600010BD042010BD00BF2DE9F8430378022B99
:1081700004460D46164606D0032B52D0012B1BD0C9
:108180000220BDE8F883016AC36A01EB1521994218
:1081900003D0FFF76DFF0028F3D16D0004F1300329
:1081A00005F4FF755A195E55C6F307210123517076
:1081B000E3700020BDE8F883016AC36A05EB550748
:1081C00001EB5721994203D0FFF752FF0028D8D185
:1081D000EB0707F1010804F13009C7F3080743D59D
:1081E00019F8073003F00F0343EA061309F80730C4
:1081F000216AE36A01EB582101229942E27004D01E
:108200002046FFF735FF0028BBD1C8F30808C84453
:10821000C6F30712012388F80020E3700020BDE8B0
:10822000F883016AC36A01EBD511994203D0FFF7C5
:108230001FFF0028A5D1AD0005F4FE7504F1300143
:10824000481926F0704243881B0403F0704313431F
:108250004B551F0A1E0C01221B0E47708670C370FF
:10826000E2700020BDE8F88309F80760216AE36A3C
:1082700001EB582101229942E27005D02046FFF718
:10828000F7FE00287FF47DAFC8F30808C844C6F3A2
:10829000032298F8001021F00F063243BAE700BF1E
:1082A00001290ED9F8B5436999420C46054606D214
:1082B0000378022B46D0032B2CD0012B03D00120B6
:1082C000F8BD01207047036AC26A01EB510703EB56
:1082D0005721914205D0FFF7CBFE00283BD12B6AF6
:1082E000EA6AC7F308000137284403EB572191429B
:1082F00090F8306003D02846FFF7BAFE58BBC7F3AA
:1083000008073D44E30795F8300046EA00202FD5E2
:108310000009F8BD016AC36A01EBD411994202D089
:10832000FFF7A6FEB8B9A40004F4FE7430352A198C
:10833000285D5188537843EA012340EA032020F066
:108340007040F8BD016AC36A01EB1421994205D05F
:10835000FFF78EFE10B14FF0FF30F8BD640004F45B
:10836000FF7430352B19285D5B7840EA0320F8BD97
:10837000C0F30B00F8BD00BFF8B500F13005C26ACC
:108380000446294640780123FFF7B8F890B9E16A1E
:10839000236AA269E070CB1A934245D32378032B5A
:1083A0000AD0002260781146FFF7B6F8003818BFEF
:1083B0000120F8BD0120F8BD2779012FF1D14FF43C
:1083C0000072002128461EF0E1FCD4E90306E269B0
:1083D00084F818622946350C4FEA162C3B46360EB7
:1083E000070A84F81A5284F81C02050C000E0132A8
:1083F00084F81B6284F81D7284F81E5284F81F02F0
:108400000E4D0F48C4F814025527AA26607884F848
:1084100019C2E26284F82E7284F82F622563FFF796
:108420006DF800232371BCE7A378022BB6D10A4470
:10843000607801232946FFF761F8AFE752526141A6
:10844000727241612DE9F843036800240C60002B2F
:1084500000F01D811C4602E03A2D00F0158114F851
:10846000015B202DF8D8BE4B1C68002C00F0218148
:108470000C60237802F0FE057BB16078FFF72CF8E2
:10848000C7070AD4002D00F0FC8010F0040500F0AE
:10849000F8800A252846BDE8F88300202080FFF7F1
:1084A0001DF8C60700F1F7800DB14107F1D4002196
:1084B0002046FFF70FFE022800F0A080042800F0FD
:1084C000F680012898BF002500F2DA8094F83C205D
:1084D00094F83B3043EA0223B3F5007F40F0D080AC
:1084E00094F8472094F8463053EA022309D1B4F8AF
:1084F000561094F8553094F8542043EA012342EA88
:10850000032394F84010A3614A1E012AA17000F2CF
:10851000B78094F83D0082B26281002A00F0B080FA
:10852000421E024240F0AC8094F8426094F8412030
:1085300042EA06221746228116B23A0740F0A0808E
:1085400094F844C094F8432052EA0C2209D1B4F8BC
:1085500052E094F851C094F850204CEA0E2C42EAB4
:108560000C2294F83FE094F83EC05CEA0E2E00F036
:10857000878003FB01F90EEB171101EB0908424557
:108580007ED3A2EB08028242B2FBF0FC78D3754A9C
:10859000944575D84FF6F572944500F2A38040F6E5
:1085A000F57294450EEB05000CF1020208EB050193
:1085B00062612062A162E56100F2C980002F5FD094
:1085C00000EB090102EB420002F00102616202EBE2
:1085D0005002012102F2FF12B3EB522F50D34FF0A1
:1085E000FF33C4E90333802222715F4A217013886C
:1085F00001339BB21380E380002542E094F8F2112E
:10860000002958D0B4F8F83194F8F71194F8F681AD
:1086100041EA032148EA012894F802524DB1B4F826
:10862000082294F8073294F8065243EA022345EAF6
:10863000032594F812724FB1B4F8182294F8173247
:1086400094F8167243EA022347EA032794F8226259
:108650004EB1B4F8282294F8273294F8266243EAFF
:10866000022346EA0326B8F1000F2BD135B1294683
:108670002046FFF72FFD01287FF628AF57BB76B9BC
:108680000D252846BDE8F8839D1CAC4215D00B256E
:108690002846BDE8F88303252846BDE8F88331461F
:1086A0002046FFF717FD012858D90428E8D10125F5
:1086B000E7E70C25E5E78846AEE71B78302BE6D1E7
:1086C0000460D0E641462046FFF704FD0128CDD8DE
:1086D0004546FBE639462046FFF7FCFC0128CED88C
:1086E0003D46F3E694F85B1094F85A20E56142EABF
:1086F000012232430CF102000EEB050708EB0501E5
:1087000012B260612762A162002AB9D1B4F85E702A
:1087100094F85D6094F85C10820002F2FF1246EA61
:10872000072041EA0021B3EB522F6162A8D394F8ED
:10873000611094F8603043EA01234FF0FF3280214A
:10874000012BC4E90322217110D003214DE7002F32
:1087500096D048446062520002213BE73546B5E6B8
:10876000B8740020F5FFFF0FBC740020E36A691C99
:10877000994204D02046FFF77BFC0028E5D194F80D
:108780002F2294F82E3243EA02234AF65522002182
:1087900093422171D9D1608E94F8312094F8303011
:1087A000174942EA002243EA02238B42CDD1B4F8B2
:1087B000160294F8152294F8143201F1FF5101F5D4
:1087C000005142EA0022203143EA02238B42BCD10D
:1087D000B4F81A6294F81902B4F81E5294F81D12F3
:1087E00094F8182294F81C3240EA062041EA052148
:1087F00042EA002243EA0123C4E90332A5E700BFAD
:10880000525261412DE9F047D0F8189007680446AC
:10881000B9F1000F2ED007F13008FA6A4A4513D09B
:10882000FB78002B49D1787801234A464146FEF770
:1088300057FE38B14FF0FF33FB6201200023A361E4
:10884000BDE8F087C7F82C90E3691A7892B1DB7A1B
:10885000E52A03F03F03A37107D02E2A05D00F2B82
:1088600003D023F02003082B1FD025692035B5F550
:10887000001F01D30420E1E7D4F81890B9F1000FEC
:10888000F8D0C5F30803266893B9616909F10109B5
:10889000C4F8189049BB3389B3EB551FEAD9303679
:1088A000E6612561B9F1000FB7D10020BDE8F0877E
:1088B00030363344E3612561AFE7787801234146E0
:1088C000FEF71CFE0028B8D1F96A3B6ABA69F87055
:1088D000CB1A9342A7D2BB78022BA4D10A44787852
:1088E00001234146FEF70AFE9DE77389013B13EA27
:1088F000552AD4D13046FFF7D3FC012816D9431CA2
:108900009BD073699842B5D2023B821E9A42606145
:1089100007D2B6F80A90B36A02FB0939C4F8189076
:10892000BDE73036C4E906A62561BEE7022085E72B
:108930002DE9F84FD0F800800746894689BBD8F862
:108940000C600EB3D8F81430B34298BF0126D8F8A3
:108950001030F3B1D8F81430344601349C421CD3A3
:10896000012E16D93D6802246B69A34208D92B78E1
:10897000022B00F09F80032B00F08280012B4DD052
:1089800001242046BDE8F88FD8F810300126002BCE
:10899000E0D100242046BDE8F88F012C3D68EFD9D6
:1089A000E2E74046FFF77CFC01280446E8D9601C5A
:1089B0002FD0D8F81430A342E3D8D8F81020002ADA
:1089C000E7D009F10104A34298BF02243868214688
:1089D000FFF766FC0128D3D0411C1AD048B1D8F863
:1089E0000C60D8F81430012E7BD9B34298BF4E46A4
:1089F000B2E7002C73D0D8F81430A342C0D94FF09E
:108A0000FF3221464046FFF7AFFB00286ED0012819
:108A1000B6D14FF0FF342046BDE8F88F2B6AEA6AE2
:108A200004EB540B03EB5B21914206D02846FFF781
:108A30001FFB0028EDD12B6AEA6ACBF308000BF18B
:108A4000010B284403EB5B21914290F830A004D045
:108A50002846FFF70DFB0028DBD1CBF3080B5D4464
:108A6000E20795F830304AEA03233CD51B09002B76
:108A7000C1D0012B84D0A6428BD0D8F814306CE73B
:108A8000296AEB6A01EBD411994204D02846FFF71A
:108A9000EFFA0028BDD1A300303503F4FE73E918C6
:108AA000EB5C48884A7842EA002243EA022323F03A
:108AB0007043DCE7296AEB6A01EB1421994204D088
:108AC0002846FFF7D5FA0028A3D16300303503F418
:108AD000FF73EA18EB5C527843EA0223C7E7D8F841
:108AE00014304E4638E7C3F30B03C0E7B9F1000F6B
:108AF00010D0B9F1010F7FF643AFD8F81430994583
:108B0000BFF43EAF494622464046FFF72DFB002802
:108B10007FF47DAFD8E90423023B9A42C8F80C40A9
:108B200002D8013AC8F8102098F8043043F0010345
:108B300088F8043025E700BF2DE9F843846807680A
:108B4000002306460361BCB93B78022B10D83B8951
:108B50005BB17B6AB36174613BB13037F761002070
:108B6000BDE8F8830023C6E905430220BDE8F88389
:108B70007B6A002BEBD01C467B89002B69D1012C32
:108B8000F3D935686B699C42EFD22B78022B4AD01F
:108B9000032B2AD0012BE8D12B6AEA6A04EB540894
:108BA00003EB5821914206D02846FFF761FA0028CE
:108BB00043D12B6AEA6AC8F3080008F10108284487
:108BC00003EB58218A4290F8309003D02846FFF7F3
:108BD0004FFA90BBC8F308084544E20795F83030D7
:108BE00049EA03233FD51C0917E0296AEB6A01EB28
:108BF000D411994203D02846FFF73AFAE8B9A40005
:108C000004F4FE7430352A192C5D5188537843EAF8
:108C1000012344EA032424F07044012CA5D97B6984
:108C2000A342ACD8A1E7296AEB6A01EB142199426F
:108C300005D02846FFF71CFA08B1012090E7640030
:108C400004F4FF7430352B192C5D5B7844EA03245F
:108C5000E3E77A69A11E023A914283D2BA6A01FB24
:108C60000323B36177E7C3F30B04D6E72DE9F04F95
:108C70002DED028B85B007680446FFF75DFF834644
:108C800048B1042801D14FF0070B584605B0BDECA0
:108C9000028BBDE8F08FD4F818A0FA6A009007F1B3
:108CA0003003B8469B465746BA4219D098F803306D
:108CB000002B49D198F8010001233A465946FEF7A6
:108CC0000FFC58B14FF0FF33C8F82C304FF0010BB8
:108CD000584605B0BDEC028BBDE8F08FC8F82C708B
:108CE000E3691B78E52B2CD00BB99B46CDE72569B2
:108CF0002035B5F5001F04D30023A3614FF0070B07
:108D0000C3E7A369002BBED0C5F30809D4F800A0BF
:108D1000B9F1000F07D03A460AF130061F464E441B
:108D2000E6612561C0E761695F1CA76159BBBAF8BC
:108D30000830B3EB551FDFD9D8F82C200AF13006E4
:108D4000EDE7DDF800B0A0E798F8010001235946EF
:108D5000FEF7D4FB0028B9D1D8F82C10D8F8203071
:108D6000D8F8182088F80300CB1A9342A2D298F8BA
:108D70000230022B9ED10A4498F801000123594683
:108D8000FEF7BCFB96E7BAF80A30013B13EA55231D
:108D9000D2D15046FFF784FA012807466CD9421C0D
:108DA00094D0DAF81430984253D361692046FFF723
:108DB000BFFD074600283FF466AF01285CD0431C86
:108DC00084D09AF803300AF13006002B57D1DAF834
:108DD0001430B91E023B994238BFDAF828300191AD
:108DE0000A4636BFBAF80A20002301FB0233CAF84C
:108DF0002C304FF400720021304602931DF0C6FF64
:108E0000BAF80A300BB3002308EE10BA0394B34645
:108E10001C462E46029D04E0BAF80A3001349C42FA
:108E20004FD29AF8010001232A195946FEF766FB32
:108E30000028F1D0354622465E46039CBAF80A3037
:108E400018EE10BA93427FF441AFDAF81430019A69
:108E500003E0821E01920AF13006023B93426761F1
:108E600085BFDAF82830BAF80A70002702FB073706
:108E7000D8F82C20A76152E74FF0020B05E7DAF88B
:108E80002C209AF8010031460123FEF737FB002819
:108E90007FF41CAFDAF82C10DAF82030DAF818205A
:108EA0008AF80300CB1A934291D29AF80230022B2F
:108EB0008DD10A449AF8010001233146FEF71EFBCA
:108EC00085E7354622465E46039C18EE10BAB9E7A0
:108ED00000B583B0CDE9001011B30B4601E03A288C
:108EE0001AD013F8010B2028F9D811490B680BB1DF
:108EF00000201870019B0BB1002018700B601AB98C
:108F0000104603B05DF804FB002201A96846FFF794
:108F100099FA03B05DF804FB11F8020B8B4203D001
:108F20000B2003B05DF804FB3028F9D1DDE700BF6A
:108F3000B8740020F0B595B00222019002A901A8F2
:108F4000FFF780FA044600BB019D2A784FF02033DA
:108F50001F2ACDE90333CDF8133040F2A4806D4FC2
:108F600003A90135019515F8013CA3F16102192A05
:108F70009CB218D8203CA4B2674A2B2302E012F816
:108F8000013F2BB1A342FAD10624204615B0F0BD13
:108F90000B28F9D02B7801F8014B1F2B00F10106AB
:108FA00009D93046DDE77F2C84BFDB1913F8804CEC
:108FB000002CE1D1E8E79DF80C30E52BE4D014AAB1
:108FC000024412F8442C202A51D100284ED0461ECB
:108FD00014AA324412F8442C202A40F08F80002E2C
:108FE00044D0821E14A9114411F8441C20293ED1FA
:108FF000002A3BD0C61E14A9314411F8441C202974
:109000004FD19EB3021F14A9114411F8441C20290A
:109010002DD15AB3461F14A9314411F8441C2029FC
:109020003FD11EB3821F14A9114411F8441C2029FA
:109030001DD1DAB1C61F14A9314411F8441C2029EE
:109040002FD19EB1A0F1080214A9114411F8441CBB
:1090500020290CD152B1A0F1090614A9314411F80C
:10906000441C20291DD10EB1202B00D10026029BCB
:10907000099309A800230B93FFF75EFD044600281F
:1090800083D109A8FFF7BEFB90B9002E38D1109B01
:10909000E5221A7002980123C370FFF76DF90446A8
:1090A00073E71646E3E79DF80C30E52BDED16BE75E
:1090B000042801D0044668E7002E3FF466AF09A8F3
:1090C000FFF7D4FD044600287FF45FAF014620225D
:1090D00010981DF05BFE109A082103ABD17203CBF0
:1090E000109A9C78106002981D8894720123516038
:1090F0001581C370FFF740F9044646E70646B6E718
:1091000003AB03CB109A1C889B78106051601481CC
:109110009372BFE744A60400C4A60400002800F030
:109120000F822DE9F04F1C4689B00D4616460346C6
:1091300002E03A2A00F0CF8013F8012B202AF8D859
:10914000864B1B680BB100221A700020FEF7C6F98F
:10915000C70700F1CD8010F0040019D106AA032141
:10916000FEF7DAF928B9069A531EB3F5004FC0F09E
:10917000B980012306937EB1794BA6F500729A421D
:1091800002D8731E334207D0132009B0BDE8F08F18
:109190000A2009B0BDE8F08F002C00F0A780129BD8
:1091A000B3F5007FC0F0A28007AA01210020FEF7DE
:1091B000B3F98046002840F0888115F00803079F26
:1091C000039340F09D803E2F40F2A88060230293DD
:1091D00040203F23CDE900303F3F6FF05F0E4FF05E
:1091E0005F0C7F2F079740F29980B6F5813FCBD275
:1091F00015F002034FEA5622059300F0918005F026
:109200000703022B02D0E90700F18D80002A00F04D
:109210007B819246B7FBF2F352499E00A3F57F4350
:10922000F63B06F207268B424FEA562676D8069979
:1092300006EB0C004D1E4B4205441D402D1A05F156
:10924000200365449146049552464FF0000B4FF0C1
:10925000030A009D401B00EB0910B8425ED89D191F
:109260007D1BBAF1030FA5EB0B05B5FBF9F57BD020
:10927000BAF1020F40F095814FF6F570854240F249
:109280002681002A46D14FEA4909B9F1400F06D993
:10929000059B002B40F03881B9F1800F3ED84A463B
:1092A00040F6F570B7FBF9F3834240F21B81981C3E
:1092B00040004FF0020A029B00F2FF1003EB502027
:1092C0004E1E4B4206441E40019B049376444FF0D1
:1092D000200B0123BDE7821C93420DD00B2009B067
:1092E000BDE8F08F1A423FF446AF42E7112050E745
:1092F000032009B0BDE8F08F0378302BEED11FE7D3
:10930000212302930123CDE900036FF0200E4FF0DB
:10931000200C66E7059B002B7FF478AF0E2038E722
:10932000EB077FF531AF002A40F00C813B0B00F0DA
:109330001881032B40F231810F2B40F23A813F2BF1
:1093400040F2D181FF2B40F2D181B3F5007FC0F014
:10935000E98106994FF04009A2E700BFB8740020E8
:1093600000FEFF00FFFFFE0F4FF6F5718D4240F249
:10937000C1804FF400720021204602931DF006FDCB
:10938000DC4A029BDC4922603522BAF1030F61609E
:1093900022724FF02E014FF0300218BF4FF002083A
:1093A000C3F307206172A272A3730022022101237A
:1093B000B7F5803F84F8128084F80D90E073E27274
:1093C00062742173237480F0C080C7F30723E774AD
:1093D0002375F82363759DF80030C84A0293194637
:1093E000BAF1030F4FF00003A26121776377A377EF
:1093F000E37700F0E4804E2284F82A20C6F30722A7
:10940000BF4BE275802284F8242004F12F02BD496D
:10941000A6759A42C4F8261005D904F12B02191D2D
:109420008A42C0F0FC81B84AB84BC4F82B30C4F86B
:109430002F20B74BC4F83330A2F513122023A2F526
:109440006452C4F8372084F83B3084F83C3084F808
:109450003D305522AA2384F8FE2184F8FF312146AD
:10946000009A01230020FEF749F8014668BB129BD1
:1094700023F4FF7222F0010220461DF087FCBAF1AE
:10948000010F4FF0FF0314BFFF210021F822E1700C
:1094900022706370A370129BDDF810805D0A03E0F8
:1094A0001DF074FCF61B60D0AE42374628BF2F4635
:1094B000424621463B460020FEF720F801464FF485
:1094C00000722046B8440029EAD0012061E640F647
:1094D000F57085423FF64DAF002A7FF41FAF4FEA8B
:1094E0004909D9E603EB43000130400803304FF04F
:1094F000010AE0E6002A7FF411AFB9F1010F3FF451
:109500000DAF4FEA590281E65FEA574A00F07081D9
:10951000BAF1010F00F06881BAF1030F40F26E81D9
:10952000BAF1070F40F26681BAF10F0F40F26A817B
:10953000BAF11F0F40F26A814FF0000A402269E63B
:109540000B20704706999146A9E63A0A3B0C84F82D
:1095500020703F0E84F8212084F8223084F8237094
:1095600037E706994FF001099AE64746BAF1030F2B
:1095700018BFD94603E0B9EB060900F0D680A9452B
:109580004E4628BF2E463A46334621460020FDF778
:10959000B5FF37440028EED097E706994FF002094F
:1095A0007EE640F6F57295423FF6B8AE4FF0010AFE
:1095B000DFE64FF004090699B7FBF9F377E64E2290
:1095C00084F84620320A84F82520320C84F82620BC
:1095D000320E84F8272002224E4BE26280224E494E
:1095E00084F8402004F1470221639A42454984F8F7
:1095F0002460C4F8421005D2043B04F14B029A42A5
:1096000000F21881404A414BC4F84B2002F18F52BE
:10961000C4F8473002F560223D4BC4F84F3002F5E4
:10962000E0622023C4F8532084F8573084F858307F
:1096300084F859304FF055034FF0AA0884F8FE31F2
:10964000009A84F8FF81012321460020FDF756FF90
:10965000074600287FF439AF009A012306322146DD
:10966000FDF74CFF4FF40072394620461DF08EFB8B
:109670002A4A2260013D009A294B84F8E8514FEABA
:10968000152C4FF0550E280C290E022584F8FEE10A
:1096900084F8E9C184F8EA0184F8EB11C4F8E431F4
:1096A00007320123214684F8FF81C4F8EC51384683
:1096B000FDF724FF019A012321463846FDF71EFFDE
:1096C000129B23F4FF72394622F0010220461DF05E
:1096D0005DFB6FF007014FF0FF326FF070432160C8
:1096E0006260A360D7E64FF0080964E74FF0100905
:1096F00061E700BFEBFE904D53444F533F00FF0026
:1097000024A6040029000021414D45204E4F204E43
:109710002020204614A60400010006005252614198
:10972000727241614FF0200945E7BAF1030F00F072
:109730008E80079BB3F5803F80F08780BAF1020FDF
:109740000CBF04250125039B002B44D1DDF80C80C0
:109750004FF40072414620461DF018FB079B009A0B
:109760000298DFF8F0E084F8C2511A4443F6C16170
:10977000B2FBF1F2910841F03F014FEA132C1F0CAC
:109780001E0E84F8CA315525FE2384F8C521AA226D
:1097900084F8C60184F8C41184F8FF2184F8C33129
:1097A000404684F8C78184F8C88184F8C98184F868
:1097B000CBC184F8CC7184F8CD6184F8FE51C4F833
:1097C000BEE1214601234246CDF80C80FDF796FE0E
:1097D00000287FF47AAE002211461046FDF79CFE69
:1097E000003818BF0120D4E44FF0000A022211E52E
:1097F00001220FE54FF0000A08220BE54FF0000AA6
:10980000042207E54FF0000A102203E57E09B600A6
:1098100006F20726760A4FF0000A202207E503F138
:10982000130004F12A0213F8011B02F8011F8342FE
:10983000F9D10EE603F1130104F1460213F8010B0E
:1098400002F8010F8B42F9D1F4E606257BE70C25DF
:1098500079E700BF00010100704700BF203014F01D
:109860008FBA00BF38B5437F0BB9002038BD00F177
:10987000680420460D4614F091FA0028F5D12046E0
:10988000294614F05DFA012038BD00BF203014F0E5
:1098900069BA00BF203014F079BA00BF2DE9F04F4B
:1098A00083B0019272B34C1E174F0546C1F10106F9
:1098B00004EB020800F1680A2B681B68BB4206EB48
:1098C000040B14F8019F17D16B7F50461BB9584603
:1098D00003B0BDE8F08F14F061FA034649465046E4
:1098E000002BF4D114F02CFA4445E5D1DDF804B096
:1098F000584603B0BDE8F08F4946284698470028EF
:10990000F2D1E4E79346E2E76598020030B4837E43
:109910001F2B4FF0010288BF03F01F03C27603F52F
:10992000E0738CBF244A4FF0A04240F20C6142F831
:109930002310437E02691F2B86BF03F01F031E49BD
:109940004FF0A04103F5E07340F20C6441F823406E
:109950004FF0CC710623C2F82415C2F80035837E7F
:10996000C2F8083590F91830417EC2F80C15002B6A
:109970001ADB124C5A0903F01F05603201212344FF
:10998000A940602544F8221083F8005390F918305C
:10999000002B07DB094903F01F0001225B0982400D
:1099A00041F8232030BC7047054A03F00F031A44E6
:1099B00060231376EAE700BF0003005000E100E0F7
:1099C000FCEC00E0F8B514460AB91046F8BD0546AF
:1099D00000F1200738460E4614F0C0F92B69012229
:1099E000C3F888651A62C3F83475C3F838451A603D
:1099F00002E0D3F824211AB9D3F84C21002AF8D078
:109A00000022C3F84C2102E0D3F824211AB9D3F87C
:109A10005C21002AF8D000210122C3F85C115A61B0
:109A2000D3F80421002AFBD00022C3F80421D3F884
:109A3000241109B1C3F82421D3F83C052866C0B22B
:109A4000F8BD00BF10B5044680F8B010683014F0BF
:109A500085F90123637710BDF8B503690446002238
:109A600090F8B0006277012704F16806C3F8880512
:109A7000C3F8042130461F62C3F844650D4614F054
:109A80007FF92369C3F848059F6002E0D3F82421D9
:109A90001AB9D3F85021002AF8D00022C3F8502177
:109AA000304614F06DF9236920BB0022C3F8602111
:109AB00015B9D3F8242112B301225A61D3F8042135
:109AC000002AFBD00022C3F80421D3F8240160B19E
:109AD0000022C3F82421D3F8C404C3F8C404022824
:109AE00003D004280CBF03200420F8BDD3F82421A0
:109AF000002ADAD1D3F86021002AF7D0D5E7012275
:109B0000DA61D3F84821002AFBD00022C3F84821AB
:109B1000DBE700BF0121FFF79FBF00BF70B52A4CF4
:109B20006369D3F86421002A3CD1D3F86821F2B9E3
:109B3000D3F8042122B1227F0021C3F8041162B9B5
:109B4000D3F8242142B10022C3F82421D3F8D02431
:109B5000C3F8D02401225A6170BDD4F8B820D3F8DC
:109B60003C052066002AEBD090476369E8E70022B5
:109B7000C3F8682115484FF48073A38314F0EEF8FE
:109B8000D4F8B43003B1984763691048C3F844056A
:109B90000023637714F0F4F863690122C3F84805E1
:109BA0005A63C5E7002204F12006C3F864210125A9
:109BB0003046257714F0D2F863694022C3F8346543
:109BC000C3F838251D63B0E7C07400202875002055
:109BD00070B52A4C6369D3F86421002A3CD1D3F8CC
:109BE0006821F2B9D3F8042122B1227F0021C3F801
:109BF000041162B9D3F8242142B10022C3F8242110
:109C0000D3F8D024C3F8D02401225A6170BDD4F80F
:109C1000B820D3F83C052066002AEBD09047636952
:109C2000E8E70022C3F8682115484FF48073A38346
:109C300014F094F8D4F8B43003B19847636910482D
:109C4000C3F844050023637714F09AF8636901228E
:109C5000C3F848055A63C5E7002204F12006C3F89B
:109C6000642101253046257714F078F86369402295
:109C7000C3F83465C3F838251D63B0E77C75002050
:109C8000E47500202DE9F8431A4DDFF878901A4C5E
:109C90001A4F284600264FF47A7840F8209BC5E9F1
:109CA000016814F041F805F1680014F03DF8032351
:109CB00020462B763B696B76114B7A6940F8209BE6
:109CC000C5E90433AA76C4E901686E7714F02CF86C
:109CD00004F1680014F028F8D7E9102104204FF0AF
:109CE0004023C4E90433667720766176A276BDE826
:109CF000F88300BFC07400207C750020DCB2040033
:109D000000300040E0A6040010B483B002AB03E9C9
:109D100006009DF805109DF804200368013918BF5E
:109D200001210024022AC3F800450C460174C273C5
:109D300032D0032A2DD0012A28D0224A0099B2FB22
:109D4000F1F2B2F5007FC3F8544504D2FF2A0DD9D1
:109D50004FF0806101E04FF000710722C3F8241535
:109D6000C3F8002503B05DF8044B70477F2A16D86E
:109D70003F2A17D81F2A18D80F2A19D8072A02D81D
:109D800011498B4217D04FF00041E6E741F0020441
:109D9000D3E741F00604D0E741F00404CDE74FF0EB
:109DA0000061DAE74FF08051D7E74FF00051D4E778
:109DB0004FF08041D1E7032A8CBF4FF020614FF074
:109DC000A051CAE70090D00300F0024003680022CF
:109DD000C3F80025704700BF002B3ED02DE9F043AB
:109DE000804685B00E4617461D464FF6FF794D4515
:109DF0002C464FF0000269464046009628BF4C466C
:109E00006EB1CDE90147AFB1039416F01FFF2D1BD2
:109E100026442744002DEAD105B0BDE8F083CDE902
:109E20000167324669467FB103942D1B16F00EFF81
:109E30002744EFE72D1B3A4669460397264416F060
:109E400005FF002DD3D1E7E73A462D1B03973E4689
:109E500016F0FCFE002DCAD1DEE7704730B587B0A2
:109E600001230D460DF10704002202A9CDE90334B8
:109E70008DF807500294059316F0E8FE9DF8070050
:109E800007B030BD0F49104A1048114B70B44D6AED
:109E90000C6A157301251060886A15714E6E9473F3
:109EA00050734C6F886E0B4D1E7300219C7358735A
:109EB000D17311821971D97319821D60916070BCC0
:109EC00099607047DCB204003876002000F0024050
:109ED0004C7600200030024070B590F90230002B23
:109EE00082B004460DDBA56805F1240001F02EFECA
:109EF00000283FD1637843F001036370002002B073
:109F000070BD8068A1692430012201F0DFFD0028C6
:109F1000F0D0A58805F00F056B0100EB4515C35C7B
:109F2000E52BE7D023781A4A03F03703EB72237846
:109F300016681B0744BFE369EB61236A6B831B0C44
:109F4000AB8266B10DF103020DF1060101A8B04725
:109F5000BDF80430BDF806202B836B82EA82A3781B
:109F6000A56803F07F03A37005F1240001F0EEFD66
:109F70000028BFD005F50D7001F0E8FD0028B9D02C
:109F800028680368DB6998470028B3D0B7E700BFAB
:109F900064760020F8B503785B0604D4244B42694C
:109FA0009A42044602D300273846F8BD024680682C
:109FB00052F8105F294601F057F907460028F2D001
:109FC0003DB32669A1780135AE4218BF01F0BF014B
:109FD000A06861F07F01A170817943690579023E33
:109FE0008E401E44DDB10025294606E01CF0CEFE61
:109FF000A0680279E9B28A4210D93144052224309E
:10A0000001F064FD01354FF4007200210028EDD10C
:10A01000C9E7A178266941F04001D9E781796269F1
:10A020004FF400738B4012FA83F363613846F8BD36
:10A0300000FE1F0070B5037882B00446002B4ED09E
:10A0400090F90230002B10DBA56805F1240001F027
:10A050007DFD002849D1637843F00103637000203F
:10A0600000232370A37002B070BD8068A169243002
:10A07000012201F02BFD0028EDD0A58805F00F0589
:10A080006B0100EB4515C35CE52BE4D023781D4A3A
:10A0900003F03703EB72237816681B0744BFE369AC
:10A0A000EB61236A6B831B0CAB8266B10DF103027B
:10A0B0000DF1060101A8B047BDF80430BDF8062037
:10A0C0002B836B82EA82A378A56803F07F03A370D9
:10A0D00005F1240001F03AFD0028BCD005E0002382
:10A0E00001202370A37002B070BD05F50D7001F062
:10A0F0002DFD0028AFD028680368DB699847002849
:10A10000A9D0ADE7647600202DE9F04194B0047841
:10A11000019206460020ADF808008DF80A00ADF85F
:10A120003800002C30D198460B7813F0D00F0D4634
:10A130002AD013782F2B14462AD0002717E0019C31
:10A140002478002C3AD000F00BFE354602ACD8B192
:10A150000FCD0FC40FCD0FC433782A68226030466C
:10A160000BB1FFF7B9FE019C3770B77002AD214605
:10A1700001AB0BAA304600F079FF04460BAA294632
:10A1800000233046002CDAD1002014B0BDE8F08165
:10A190000134019421782F29FAD0B1B9AC68242276
:10A1A00030461CF0F3FDB460E379102B03D0202B74
:10A1B00025D00C2BE8D14023337022E043460BAA74
:10A1C00000F0CEFD14B0BDE8F081AD6802A82422F5
:10A1D00000211CF0DBFD0495EB79102B03D0202B24
:10A1E00005D00C2BD0D140238DF8083002E080231D
:10A1F0008DF80830012302AD8DF80A309DE78023E9
:10A2000033700120B070C0E719B101F24441FFF78B
:10A210007BBF0846704700BF70B504780CB10020C2
:10A2200070BD05460E46242221461CF0AFFDAE60EF
:10A23000F379102B05D0202B09D00C2B01D0204610
:10A2400070BD40232B700124AC70204670BD80236C
:10A250002B70F8E72DE9F04F8378DF0783B00546D0
:10A2600040F190800F4601780E07914600F19380EF
:10A270004C0608D5826843695289C3EB42139BB2EE
:10A28000994528BF9946B9F1000F00F0B0806B697D
:10A29000AA6848064E464FF0000805F1100AC3F3BD
:10A2A000080B40D5116A01EB5321BBF1000F56D1C9
:10A2B000B6F5007F53D3106B814250D0B6F5806F56
:10A2C00072D32B785B064FEA562B05D41379A3EB98
:10A2D00008039B4528BF9B4681424FEA4B240DD87B
:10A2E00001EB0B03984209D202F124000191009284
:10A2F00001F02CFCDDE90021002843D0906A0268BF
:10A300005B46D2F814B03A46D84700283AD06B6979
:10A31000361B234427446B6169D02978AA68480614
:10A32000C3F3080BBED492F8058008EA5328BBF1AA
:10A33000000F37D1B8F1000F34D1002B3ED10C06FD
:10A340004CBF116A296A296193795469023901FA6B
:10A3500003F308EB04011944BBF1000FA8D0CBF5BF
:10A360000074B44202F124004FF0000228BF3446CA
:10A3700001F0ACFB30B100EB0B01224638461CF07B
:10A38000DDFCC4E76B784FF0FF3043F002036B70E5
:10A3900003B0BDE8F08FC36942699B1A994528BF95
:10A3A000994670E72969CFE7906A03683A461B69C6
:10A3B00098470028E6D04FF40074A8E7080705D5B1
:10A3C000AB78590602D52869411CBCE710462969BB
:10A3D000524600F0EDFF0028D4DB02D0AA682969BC
:10A3E000B2E72B7813F0D00FCCD0A9EB0609484682
:10A3F00003B0BDE8F08F00BF70B582B001220DF14F
:10A400000701D0E904560446FFF724FF01280CBFDA
:10A410009DF807004FF0FF30C4E9045602B070BD4C
:10A4200030B5436913F4F07F83B00446C3F343159A
:10A4300000D089B901220DF107012046FFF70AFF7C
:10A4400040B201280BD163691F336361A0683430C7
:10A4500000EB451003B030BD20334361F6E7002028
:10A4600003B030BD2DE9F041037807690446002BA5
:10A470003BD00D464169A94244D0002D39D0180780
:10A480002CD5E269AA4230D3D4F808C0A2789CF84F
:10A4900006000930C0B26E1E12F0400F26FA00F618
:10A4A00033D14A1E22FA00F0864201D3002930D16E
:10A4B0001B064CBFDCF82030236A236104F110082E
:10A4C00007E02169A06800F073FF002806F1FF365D
:10A4D0000BDD4246002EF4D1A2780CE05A06D3D50B
:10A4E000A3685B89B5EB431FF6D927610020BDE85F
:10A4F000F0818278056122F02002A270656101205E
:10A50000BDE8F0810120BDE8F081236A1E44266188
:10A51000F1E7361AD2E700BF2DE9F0410D4690462B
:10A520000021242204461E469DF818701CF02EFCC3
:10A53000A8682B6AE36000F1340508F00F0305EB0F
:10A540004315A060A4F80480EA7A110712D402F03F
:10A5500037022270EB7AE77013F0180F08BF42F051
:10A56000080206F0030308BF2270012B37D0022B2C
:10A570001AD023B100202070A070BDE8F0817205D0
:10A58000F8D406F0080343F00103A370AB8A698B8B
:10A59000026BA26141EA03412162EB69E36172044B
:10A5A00021D40120BDE8F0810323A3701946D3060E
:10A5B000E0D4D307DED406F0080342F020020B43B8
:10A5C0002270A370AA8A698B076BA761770541EA9D
:10A5D0000241E1D571B963F07F03A370DFE7022385
:10A5E000A3701946E3E7E1692046FFF73BFF002827
:10A5F000D7D1BFE700F050FF0028BBD0A378EAE72F
:10A600000378002B4ED070B590F90230002B82B049
:10A6100004460DDBA56805F1240001F097FA002837
:10A6200042D1637843F001036370002002B070BD33
:10A630008068A1692430012201F048FA0028F0D096
:10A64000A58805F00F056B0100EB4515C35CE52BF4
:10A65000E7D023781B4A03F03703EB7223781668A0
:10A660001B0744BFE369EB61236A6B831B0CAB825E
:10A6700066B10DF103020DF1060101A8B047BDF866
:10A680000430BDF806202B836B82EA82A378A5688C
:10A6900003F07F03A37005F1240001F057FA0028AE
:10A6A000BFD001E00120704705F50D7001F04EFAB2
:10A6B0000028B6D028680368DB6998470028B0D026
:10A6C000B4E700BF647600202DE9F04F83789C0743
:10A6D00083B0054673D591461A07884677D46A69D0
:10A6E000D3434B456BD3B9F1000F00F0D6804F46F2
:10A6F0004FF4007A3AE0002E7DD1002900F08880E6
:10A70000AB785B0640F19B80EB69934240F2978007
:10A710000131296182794369023991401944B7F5C1
:10A72000007F5ED3B7F5806F76D30379026B1B1B76
:10A730007C0AA34228BF23468A424FEA432408D317
:10A740005E18B24205D200264FF0FF3280F8246036
:10A750000263806A0268566A4246B04778B36A6903
:10A760003F1B2244A0446A6100F09780A8682969D1
:10A77000447914EA5224C2F30806BCD082794369B2
:10A780000239914019442144002EC8D0C6F5007406
:10A79000BC4228BF3C460122243001F097F970B139
:10A7A00030442246414626441CF0C8FAB6F5007FE4
:10A7B000D5D1A868243001F0C9F90028CFD16B7831
:10A7C00043F001036B70002003B0BDE8F08FC16956
:10A7D000FFF748FE0028F2D06A69D3434B4582D286
:10A7E000EDE76A69EB6957453C4628BF54469A42F3
:10A7F00007D30522D0E78279436902399140194491
:10A80000C4E7AB7813F0200F14BF05220122C3E781
:10A81000296A01B329617DE7036B8B4205D10022D0
:10A820004FF0FF3380F824200363806A03684246B8
:10A830001B6A98470028C2D04FF400748FE705F1D7
:10A840001002019200F0B4FD0028B8DB019A10D08C
:10A85000A86829695EE705F1100200F005FD0028EF
:10A86000ADD0AB782969A868296263F03F03AB706B
:10A8700050E7D5F810B0A868594600F0F5FC00285C
:10A880009DD0BBF1000F1BD1AB78296943F0400389
:10A8900063F07F03A868AB703CE7EB69934206D294
:10A8A000AB78EA6163F07F034846AB708CE70A4BF4
:10A8B0001B6873B1AB7863F07F034846AB7083E7E6
:10A8C0002969AB780BF1010B594518BF03F0BF03A1
:10A8D000DEE7484678E700BF647600202DE9F04FB8
:10A8E000074614469846064689460FCF8DB003ADFD
:10A8F0000FC50FCF0FC53B682B6000232268A381D3
:10A9000043466260CDF80480002B3FD04FF0010A2F
:10A91000A9EB0A0189B2490103A8FFF7A3FD50B3CF
:10A92000002103A8FFF77CFD074620B300250DE0BA
:10A9300001F038F98046584601F0B8F983464046A0
:10A9400001F0B4F9834516D10D2D18D0EAB239467D
:10A95000304600F0EFFBA389834601352046002BEB
:10A96000E6D1D4E901329342E2D1BBFA8BF040093F
:10A970000DB0BDE8F08F00200DB0BDE8F08F019B59
:10A980000AF1010A5FFA8AFA5345C1D20120EFE7C2
:10A990002DE9F04F92F816E0D77D167E557E4FEAEE
:10A9A000CE1C4CEA5E0C0CEB070ECEF3460C4CEAC8
:10A9B000CE1C56FA8CFECEF3460C4CEACE1C55FA51
:10A9C0008CFE1446CEF3460C927E94F81E804CEA20
:10A9D000CE1C52FA8CFECEF3460C4CEACE1C94F8F8
:10A9E0001BE005465EFA8CFECEF3460C8A461F46F7
:10A9F0000FCD4CEACE1C94F81CE08DB05EFA8CFEB4
:10AA0000CEF3460C03AE0FC64CEACE1C0FCD94F825
:10AA10001DE05EFA8CFECEF3460C4CEACE1CD5F857
:10AA200000E058FA8CF50FC6E17F94F82020C6F8B4
:10AA300000E0C5F3460343EAC51351FA83F3C3F3B9
:10AA4000460949EAC31952FA89F923686360002666
:10AA50005FFA89F30093A681002F50D047F040039E
:10AA6000B04601250193AAEB050189B2490103A86B
:10AA7000FFF7F8FC00284ED0002103A8FFF7D0FC18
:10AA8000002848D0059A019992F82430AF4243F04B
:10AA9000010382F8243008BF8C46009B80F80C80AC
:10AAA00018BFAC460F2100F101094373A0F81A80CA
:10AAB00080F800C0C1724FF0000B05E0A9F800005B
:10AAC0000BF1010B09F10209A08918B9D4E9013190
:10AAD0008B4218D0204601F065F8BBF1040F5FFAF5
:10AAE0008BF1EBD90A2902D8A9F80300E8E70C2971
:10AAF000A9F80500E4D10135EDB2AF42B3D201208F
:10AB00000DB0BDE8F08F26B10136F6B24FF6FF70FA
:10AB1000E3E70126E1E700200DB0BDE8F08F00BFBC
:10AB20002DE9F04703464FF0203153F8162B876884
:10AB3000C0F816105960C3F8071013782E2B14BFF5
:10AB40004FF0010E4FF0000E03D112F8013F2E2BF3
:10AB5000FBD0791E914288BF0B4603D807E09A428A
:10AB6000194604D01946013B0C782E2CF7D1974298
:10AB70004FF0000C40F283806446E2464FF0070835
:10AB80004FF0080913782E2B20D0222B20D07C2BBD
:10AB90001ED0A3F15B05022D1AD9A3F12A05052DBC
:10ABA00057D9A3F13A05052D61D9A3F121055D2DF2
:10ABB0005DD844452CD8A3F16105192D50D8203B10
:10ABC0004CEA090CDBB25FFA8CFC06E0914239D00A
:10ABD00044451DD84FF0000E5F23651C0619ECB2EA
:10ABE000062CB37502F1010298BF0475BA42C9D3AD
:10ABF000837D202B14D0BEF1000F16D01CEA0A0F63
:10AC000018BF4FF0020C80F815C07046BDE8F08701
:10AC1000B8F10A0F01D091421ED2837D202B04D1BE
:10AC20004FF0000E7046BDE8F087037D03444FF0FF
:10AC3000010E7E21312280F815E09975DA75704693
:10AC4000BDE8F0874A1C4FF00A0808244FF01009AD
:10AC5000CCE72D2BADD0BBE70A464FF0000EC5E781
:10AC6000A3F14105192D98BF4AEA090AB5E703F097
:10AC7000C003802BACD101324FF0000EB6E7E246A4
:10AC8000B6E700BF2DE9F8430F7D0E46044601F1FB
:10AC900016054FF062084FF07E0913F03FF9032FBD
:10ACA00028BF032700F00F023B1D092ADBB28CBF2F
:10ACB00002F1370102F13001F218FB1C9175DBB291
:10ACC000C0F30312092A33448CBF02F1370102F1A9
:10ACD000300180B29975BA1CC0F30323092BD2B29C
:10ACE0008CBF03F1370103F1300132447B1CDBB22E
:10ACF0009175B0F5204F4FEA1031334406EB07024F
:10AD00002CBF3731303199752046002182F81690DA
:10AD1000FFF7A8FB01212046FFF782FB03460B2229
:10AD20002846194693B193F800C0BCF1000F13D028
:10AD3000DB7A1B07EED41BF0F3FF0028EAD108F101
:10AD4000FF3818F0FF08A8D1404603E06078B0FA59
:10AD500080F04009BDE8F8830120BDE8F88300BF1A
:10AD60002DE9F04F2DED028B0E4609788BB011F0D6
:10AD7000D00FCDE9020300F0A1800378002B40F052
:10AD80009D801369B64992460C33527DA1FB031393
:10AD90009207C3F387034FF0000118BF5F1CB2682E
:10ADA000059330460C4614BFFFB201270691079267
:10ADB0008B46FFF757FB0AF1160308EE103AA1463F
:10ADC000A0460494756900213046C5F34F15FFF77E
:10ADD00027FB002800F0B2800378E52B74D0002B0D
:10ADE00072D0BC4238BF00242E2B77D0C27A0F2AF3
:10ADF00077D0130772D4B9F1000F0ED118EE101AE4
:10AE00000B221BF08DFF0028DCD19AF8153013F0CF
:10AE100001034FD001230493D4E7BBF1010F4DD1BF
:10AE200002784178447AD30143EA52035A18C2F3B4
:10AE30004603817843EAC21351FA83F2C2F3460310
:10AE4000C17843EAC21351FA83F2C2F3460301798F
:10AE500043EAC21351FA83F2C2F34603417943EA4B
:10AE6000C21351FA83F2C2F34603817943EAC21353
:10AE700051FA83F2C2F34603C17943EAC21351FA8D
:10AE800083F2C2F34603017A43EAC21351FA83F212
:10AE9000C2F3460343EAC21354FA83F2C2F34603F1
:10AEA000817A43EAC21351FA83F3069ADBB29A42DB
:10AEB00004D14B46039A110540F1BC8000200BB031
:10AEC000BDEC028BBDE8F08F002C08BFA846BC4249
:10AED0003CBF0134E4B2A3B3E52B85D14FF00009A8
:10AEE00070E7B9F1000F1CD1059A03F01F0B5A450A
:10AEF0007FF468AF13F040093FF464AF437B0693DF
:10AF00009146BBF1010F7FF45DAF691C4B4689B2DE
:10AF100052463046FFF7E2FC002808BF4FF0000918
:10AF200050E70BF1FF3B5FFA8BFB5B45D6D1437BD0
:10AF3000069A9342E5D04FF0000943E77378002B5F
:10AF4000BCD1039B1A469205B8D503F00303013B1D
:10AF5000012BB3D8002C08BFA846BC4203D31CE089
:10AF6000DCB2A74219D000213046FFF759FA631C22
:10AF70000028F5D17378002BA0D1BC420DD2079DDB
:10AF800005E02B7904EB0314E4B2A74205D930465F
:10AF9000FFF700F80028F4D190E7049B002B51D173
:10AFA0007B1EDBB208EB0305ADB2294652463046A4
:10AFB0000493FFF7EDFC002880D069013046FFF7CD
:10AFC00051FA00283FF47AAF00213046FFF728FA03
:10AFD000044600283FF472AF202200211BF0D6FE69
:10AFE0005246204952F8160F049B5768676020604C
:10AFF0001089927AA27220819AF815200F6802F0C7
:10B00000180222732FB30DF123020DF1260109A8B6
:10B01000B847BDF82400BDF826109DF82320049BF6
:10B020002082E1816273079991F8242042F00102A5
:10B0300081F8242000930298039B2A463146FFF7AB
:10B040006BFA3CE751463046FFF71CFE0028A7D1BB
:10B0500034E7054A226145F621212183E3E700BF59
:10B060004FECC44E64760020215A215AF0B50846B0
:10B070000978202983B015461E4603D110F8011F18
:10B080002029FBD0002428602C61017889B1284F49
:10B090002F293BD001AA011D00F0AAFD48B101995A
:10B0A000B1F5803F08D27F2904F1010422D81F297D
:10B0B00012D8002003B0F0BD02342C61A8600178E2
:10B0C0000029E5D12B69013BFE2BF2D830602846E0
:10B0D000FFF726FD03B0F0BDCAB2A2F12203DBB236
:10B0E0001D2B0AD902F0BF033C2BE2D05C2AE0D032
:10B0F0002E29E4D02029E2D0DFE727FA03F3DB078B
:10B10000D7D43C2AD5D02E29D9D0F3E72B69013BDF
:10B11000FE2BCED80346184613F8012B202AFAD06E
:10B120002F2AF8D030602846FFF7FAFCD2E700BF9C
:10B1300001210031042A04D801EB4201B1F80100D9
:10B1400070470A2A03D801EB4201888870470C2A0D
:10B150009ABF01EB4201C888002070472DE9F843EF
:10B16000C379202B06460C46174659D0102B3ED0EB
:10B170000C2B52D1C1F34E0515FA81F5037A816982
:10B18000C5F34628022B884400F50D7914BF01222F
:10B19000032241464846ADB200F098FC00283CD05E
:10B1A00014F00104C5F3080550D0435D6A1C03F098
:10B1B0000F0343EA0713B2F5007F43554ED1337AAC
:10B1C000022B14BF0122032208F10101484600F0BE
:10B1D0007DFC10B33A09002C44D10378C2F303126A
:10B1E00023F00F03134303700120BDE8F883027AB4
:10B1F0008369022AC1F30721194414BF01220322E3
:10B2000000F50D7000F062FC034630B1640004F4F8
:10B21000FF7401201F53BDE8F8830020BDE8F883C8
:10B22000037A8169022B14BF0122032201EBD4119E
:10B2300000F50D7000F04AFC03460028EDD0A40094
:10B2400004F4FE7401201F51BDE8F8836B1CB3F5B4
:10B25000007F4755B3D03A091844BEE7C7F3071338
:10B260001044C0E7D3B2BEE72DE9F84FC468C36904
:10B270008C4205460E4617462EBF4FF001080C467D
:10B280004FF0000800F50D7901349C420DD9B8F15A
:10B29000000F03D1EC680134A34204D24FF0000840
:10B2A0004046BDE8F88F4FF00108A642F6D0012CC9
:10B2B000F4D9EB79202B2AD0102B5BD00C2BEDD1BD
:10B2C000C4F34E0AA9692A7A1AFA84FACAF3462BF9
:10B2D000022A8B4418BF0022594648461FFA8AFAB0
:10B2E00000F0F4FB0028D9D0CAF3080A0AF10103E0
:10B2F000B3F5007F10F80AA04ED018440278E30797
:10B300004AEA02224CBF1211C2F30B020FE02A7A62
:10B31000A969022A18BF002201EBD411484600F0A7
:10B32000D5FB0028BAD0A30003F4FE73C258EB6922
:10B330009A42A9D8002AA7D1B8F1000F00D0EC603A
:10B340009C42ABD86FF0704221462846FFF706FFBB
:10B3500080460028A2D05EB1012E9FD9EB699E42A3
:10B360009CD8314628462246FFF7F8FE002895D0A3
:10B370003C6095E72A7AAB69022AC4F3072118BF1B
:10B3800000221944484600F0A1FB002886D0630043
:10B3900003F4FF73C25ACAE72A7A022A18BF0022AE
:10B3A0000BF10101484600F091FB0028A6D175E79A
:10B3B000012949D92DE9F843C3698B420C4605465A
:10B3C0003ED3C379202B164641D0102B51D00C2BE5
:10B3D00036D1C1F34E03027A13FA81F38169C3F3C4
:10B3E0004629022A894400F50D7818BF00224946F3
:10B3F00040469FB200F06AFB10B3C7F308035A1C23
:10B40000B2F5007FC75C10D010440378E20747EA2A
:10B4100003234CBF1B11C3F30B03EA699A4226BFF7
:10B42000336001200020BDE8F8832A7A022A18BF81
:10B43000002209F10101404600F048FB0028E4D158
:10B440004FF0FF30BDE8F8834FF0FF307047027ACD
:10B450008169022A18BF002201EBD41100F50D709A
:10B4600000F034FB0028EBD0A40004F4FE74035970
:10B47000D3E7027A8369022AC1F3072118BF0022A9
:10B48000194400F50D7000F021FB0028D8D06400AD
:10B4900004F4FF74035BC0E72DE9F84305460C464E
:10B4A00000F50D77012C39D9EB699C4236D8EB7940
:10B4B000202B36D0102B60D00C2B2FD1C4F34E0391
:10B4C000A9692A7A13FA84F3C3F34629022A894424
:10B4D00018BF0022494638461FFA83F800F0F6FAF2
:10B4E000E0B1C8F308035A1CB2F5007F10F80380DE
:10B4F00009D010440378E20748EA03234CBF1B112C
:10B50000C3F30B031DE02A7A022A18BF002209F1B7
:10B510000101384600F0DAFA0028EBD10020BDE83E
:10B52000F8832A7AA969022A18BF002201EBD411F4
:10B53000384600F0CBFA0028F0D0A30003F4FE73E5
:10B54000C358EA699A422ABF1E464FF000084FF0DE
:10B5500001089442E2D8002221462846FFF7FEFD6A
:10B560000028DBD0EB68A34284BF04F1FF34EC6019
:10B57000B8F1000FD3D0344694E72A7AAB69022A97
:10B58000C4F3072118BF00221944384600F09EFA80
:10B590000028C3D0630003F4FF73C35AD1E700BF90
:10B5A000F8B50446012600204FF0FF35E660216023
:10B5B000A162C4F83812E07184F8240084F83402DF
:10B5C00004F124062563C4F84052DAB1042A154672
:10B5D00001D90020F8BD02460146304600F076FA57
:10B5E0000028F6D005F18055013D00F5DF7000EB35
:10B5F00005132D011A79002AEBD0425D5206E8D1DD
:10B600009F6800E01F4630460022394600F05EFA8F
:10B610000028DED0017C4B1E012BDAD8B0F80B30AD
:10B62000B3F5007FD5D12172427B2271551E0023D4
:10B63000012A6571A37148D0022A48D0042A48D053
:10B64000082A48D0102A48D0202A48D0402A48D07A
:10B65000802A03D0082312B1A371BAE70723A3718C
:10B660001D46C68A26610EB9466A2661B0F81120C9
:10B67000B0F80EC06281BC44530106FB01C1B0F8B2
:10B680001320C4F818C003F2FF1301EB5323216207
:10B69000636102B9026AFB1A1344EB4040F6F4728C
:10B6A000591C9342E16106D80C23E371E662C4F8A9
:10B6B0003C620120F8BD4FF6F472934285BFC36A25
:10B6C000236210232023E371F0E71D46C9E701231D
:10B6D000C5E70223C3E70323C1E70423BFE705232C
:10B6E000BDE70623BBE700BF03681B69184700BF1F
:10B6F00010B404686469A4465DF8044B604700BF59
:10B7000003681B6A184700BF10B40468646AA44643
:10B710005DF8044B604700BFF8B5002707753A464F
:10B720000C21044600F028F8E67C90B916B90126F1
:10B730003046F8BD05460121607C00F0C5F9FF21C7
:10B740006068FEF78BFB6068FEF740FBE5743046EF
:10B75000F8BD0923A374002EEAD0607C012100F01B
:10B76000B3F9FF216068FEF779FB3E466068FEF79B
:10B770002DFBE7743046F8BDF0B50368524DDB6928
:10B7800083B0AB42044601920E4674D1037D022B76
:10B7900041D0012B74D0E37C002B55D00EB10C2E80
:10B7A00027D1606846F04001FEF758FB01AF02ADBB
:10B7B00015F8011D6068FEF751FBBD42F8D1002E5F
:10B7C0000CBF952187216068FEF748FB6068FF2168
:10B7D000FEF744FB0A256068FF21FEF73FFB013DB1
:10B7E00010F0800F6075ADB201D0002DF3D103B021
:10B7F000F0BD12F093FB00F5967085B204E012F0F4
:10B800008DFB281A030433D46068FF21FEF726FB62
:10B81000FF28F4D1C5E712F081FB00F5167087B25E
:10B8200004E012F07BFB381A02041DD46068FF218B
:10B83000FEF714FBFF280546F3D16068FD21FEF7F3
:10B840000DFBE37C83BB2375D4E902126068FEF72D
:10B850005BFA0123607CE374002100F035F9606835
:10B86000FF21FEF7FBFA99E7E37C1F22A27463B97C
:10B87000FF2003B0F0BD984700288CD1FF20F8E7E7
:10B88000FFF74AFF0028F9D085E7607C012100F02E
:10B890001BF9FF216068FEF7E1FA6068FEF796FA8F
:10B8A0000023E374FF20A2E7607C012100F00CF983
:10B8B00029466068FEF7D2FA6068FEF787FA00232F
:10B8C000E3742375C0E700BFD1B9020003683F4AA3
:10B8D000DB6993420BD12DE9F041057D022D044631
:10B8E00006D0012D21D001263046BDE8F081184751
:10B8F00012F014FB00F5167086B204E012F00EFB95
:10B90000301A03042BD46068FF21FEF7A7FAFF2842
:10B910000546F3D16068FD21FEF7A0FAE37C002B19
:10B9200045D1002323750126DEE74FF0000880F89B
:10B93000148042460C21FFF71FFF0746A8B9E67C9A
:10B94000002ED0D0607C294600F0BEF8FF21606850
:10B95000FEF784FA6068FEF739FAE774C4E7E37C1F
:10B960001F22A274ABB90026BEE7E37C0922A274B1
:10B97000002BF8D0607C294600F0A6F8FF21606813
:10B98000FEF76CFA6068FEF721FA464684F81380E9
:10B99000AAE7607C012100F097F8FF216068FEF7BC
:10B9A0005DFA00266068FEF711FAE6749CE7607C99
:10B9B000012100F089F829466068FEF74FFA6068B7
:10B9C000FEF704FA0023E374ABE700BFD1B902002D
:10B9D0002DE9F041057D022D044605D0012D20D032
:10B9E00001263046BDE8F08112F098FA00F5167095
:10B9F00086B204E012F092FA301A03042BD4606885
:10BA0000FF21FEF72BFAFF280546F3D16068FD21E0
:10BA1000FEF724FAE37C002B47D10023237501268F
:10BA2000DFE74FF0000880F8148042460C21FFF752
:10BA3000A3FE0746B8B9E67C002ED1D0607C29462B
:10BA400000F042F8FF216068FEF708FA6068FEF730
:10BA5000BDF9E774C5E7E37C1F22A274BBB90026D9
:10BA60003046BDE8F081E37C0922A274002BF6D0B9
:10BA7000607C294600F028F8FF216068FEF7EEF9A7
:10BA80006068FEF7A3F9464684F81380A9E7607C56
:10BA9000012100F019F8FF216068FEF7DFF90026A8
:10BAA0006068FEF793F9E6749BE7607C012100F083
:10BAB0000BF829466068FEF7D1F96068FEF786F951
:10BAC0000023E374A9E700BF15F016BEF8B50446DD
:10BAD0004068002832D00F46E168B942154630D0A0
:10BAE0002278D60712D404F110066B0706D46068DA
:10BAF000036832461B6939469847F8B1E76000226F
:10BB000005F00305154325703046F8BD026804F1C1
:10BB10001006136A3246984780B123789A0709D5F0
:10BB20006068E1680268136AA26811443246984767
:10BB300020B1237823F001032370D6E70026304696
:10BB4000F8BD264616F8102BDAE700BF70B503786B
:10BB5000DC0782B01DD504464068E168036804F143
:10BB6000100201921B6A9847019A0546A8B12378F2
:10BB7000990708D56068E1680668A368366A1944C1
:10BB8000B04750B1237823F001032846237002B058
:10BB900070BD0125284602B070BD0025284602B0C0
:10BBA00070BD00BF10B50446808982B018B1002373
:10BBB000A38102B010BDD4E901318B42F9D21846FD
:10BBC00001AA00F015F880B1019B6060B3F5803FD9
:10BBD00001D298B2EDE7980AC3F30902A2F5105317
:10BBE000A0F52150A38180B2E3E74FF6FF70E0E7B4
:10BBF000884270B43FD290F900400378002C3EDABE
:10BC000003F0E004C02C3FD003F0F004E02C3FD060
:10BC100003F0F804F02C2ED103F007030425441997
:10BC20008C4228D8417801F0C006802E23D101F043
:10BC30003F01022D41EA83132ED0817801F0C00626
:10BC4000802E18D101F03F01032D41EA831308D063
:10BC5000C17801F0C00080280DD101F03F0141EA18
:10BC600083131149A3F18000884204D8A3F55841F9
:10BC7000B1F5006F15D20024204670BC70471360E8
:10BC8000441C204670BC704703F01F030225C6E722
:10BC900003F00F030325C2E70349A3F180008842A4
:10BCA000E9D81360EDE700BF7FFF10007E283DD983
:10BCB00030B40023254D352405E035F822108142AB
:10BCC0008CBF14461346E11A012903EB5102F4D844
:10BCD0009BB235F82320904218D21D4D4B240023EF
:10BCE00005E035F8221081428CBF14461346E11A54
:10BCF000012903EB5102F4D89BB235F8232082428C
:10BD000004BF05EB8303588830BC704705EB830301
:10BD1000821AD9788A42E0DA93F90230012B0DD0E9
:10BD20008BB19BB2184480B230BC7047A0F1610364
:10BD3000192B02D8203880B27047704702F00102F8
:10BD4000801A80B2E0E74EF2A033EBE728A80400A7
:10BD5000FCA6040000F580534FF0FF321A607047D4
:10BD600070B500F5805633685A1C0FD00C1D05467F
:10BD7000190B204600F0F6FB4FF480533168204643
:10BD80002A4600F06FFC4FF0FF333360012070BD96
:10BD90002DE9F04F83B00C9E002E38D01F4600F5E1
:10BDA00080538246154601F1040B0193019BC5F3B4
:10BDB0000B08C8F5805425F47F691B68B44229F04C
:10BDC0000F0928BF34464B45254417D0190B0133C2
:10BDD000584609D000F0C6FB01994FF4805309681A
:10BDE0005246584600F03EFC019B4946C3F800907D
:10BDF00052464FF48053584600F0F0FB39460AEBA8
:10BE0000080022461AF09AFF361B2744CED10120A3
:10BE100003B0BDE8F08F00BF2DE9F84F074600F5ED
:10BE200080501E460568DDF828806B1C8946144644
:10BE300005D095420DD805F58053A34211D843464D
:10BE40003246214609F1040000F0C8FB0120BDE89C
:10BE5000F88F02EB08039D42F1D205F58053A3420F
:10BE6000EDD9B5EB040A29D404EB08035D1BB5F545
:10BE7000805FA8BF4FF48055BAF1000F28D0534619
:10BE80003246214609F1040000F0A8FB0AEB050B3D
:10BE900006EB0A004FF0000A2A4607EB0A011AF0E7
:10BEA0004DFFD845D2D9A8EB0B0306EB0B0204EBF0
:10BEB0000B0109F1040000F091FBC7E70AF580557A
:10BEC0004545A8BF4546CAF1000AAB463046E3E700
:10BED000AB463046E0E700BF704700BF10B50446F0
:10BEE000043000F007FB606918B114F075FB002303
:10BEF000636110BD08B5043000F018FB80F001004C
:10BF0000C0B208BD08B5043000F0FEFA400A08BD12
:10BF10000146406908B1FFF723BF0120704700BF09
:10BF200030B5446983B054B14FF4007513460095A1
:10BF30004A0201462046FFF76FFF03B030BD4902B9
:10BF40004FF40073043000F049FB003818BF0120A3
:10BF500003B030BD30B5456983B01C464DB16402B5
:10BF6000134600944A0201462846FFF755FF03B0E6
:10BF700030BD5B024902043000F030FB003818BFCE
:10BF8000012003B030BD00BF30B5446983B054B167
:10BF90004FF40075134600954A0201462046FFF70C
:10BFA000F7FE03B030BD49024FF40073043000F0D7
:10BFB00059FB003818BF012003B030BD30B54569CA
:10BFC00083B01C464DB16402134600944A020146F8
:10BFD0002846FFF7DDFE03B030BD5B0249020430A6
:10BFE00000F040FB003818BF012003B030BD00BF97
:10BFF0000368064ADB699342014605D1406908B1EE
:10C00000FFF7AEBE01207047184700BF11BF020006
:10C01000F0B50368104F1E69BE4283B017D10446C5
:10C02000406948B14FF40076134600964A02214613
:10C03000FFF7F2FE03B0F0BD4902201D4FF400737C
:10C0400000F0CCFA003818BF012003B0F0BD334631
:10C0500003B0BDE8F040184721BF0200F0B5036807
:10C06000104F1E6ABE4283B017D10446406948B1E2
:10C070004FF40076134600964A022146FFF788FEE9
:10C0800003B0F0BD4902201D4FF4007300F0EAFA3E
:10C09000003818BF012003B0F0BD334603B0BDE83F
:10C0A000F040184789BF0200F0B50568DFF840C0CE
:10C0B000D5F814E0E64583B015D10446406940B197
:10C0C0005D02009513464A022146FFF7A5FE03B024
:10C0D000F0BD5B024902201D00F080FA003818BF55
:10C0E000012003B0F0BDF44603B0BDE8F040604766
:10C0F00055BF0200F0B50568DFF840C0D5F824E070
:10C10000E64583B015D10446406940B15D02009513
:10C1100013464A022146FFF73BFE03B0F0BD5B0227
:10C120004902201D00F09EFA003818BF012003B01C
:10C13000F0BDF44603B0BDE8F0406047BDBF02006B
:10C1400038B5074B044640F8043B154600F026F886
:10C15000044A6574002322606361204638BD00BF35
:10C1600004A9040048A9040070B50446043000F096
:10C1700021F8A368054633B1DB7A5B0603D4637C00
:10C180000BB163690BB1284670BD41F2040014F095
:10C190001FFA0646FFF7DEFD6661F4E730B40025BE
:10C1A0004FF0FF340122C0E900158460027330BCF7
:10C1B000704700BFF0B50546006883B0002800F066
:10C1C000F78003681B680E4617469847286803687F
:10C1D0005C6904230DEB03029F21A0479DF805C075
:10C1E000BCF17F0F00F0C880002E00F0D080002F3F
:10C1F00040F3D1809DF804209DF806E0002302E082
:10C200009F4240F3D88003EB430406EB84040133E0
:10C21000A0799042DBB2F3D1E1796145F0D1217A86
:10C220007145EDD16C60002C00F0B580E37A5F06BB
:10C230002BD46C462868036822465E6905210123D9
:10C24000B0479DF80030DE07F4D46B68DB7A9806BF
:10C250000AD42868036822465E6935210123B04765
:10C260009DF90030002BF4DB2868036866211B6908
:10C2700098472868036899211B6998478C4B4FF4AD
:10C28000F06043F0010398476C68647A894A286833
:10C290008949036802FB04F28A4228BF0A46DB6828
:10C2A00011469847286803689B6898476B68002880
:10C2B0002ED0DA7A51072BD5930640F1BF8028683B
:10C2C00003686C465E69224601230521B0479DF84C
:10C2D00000206B689E7A164021D1286803680621E9
:10C2E0001B6998476B688DF800609A7A8DF8012079
:10C2F000DB7A2868DE0600F1AC80990640F1C9803F
:10C3000002680123946919460DEB0302A04705E07A
:10C31000DA7A970703D52B680B225A716B681B6872
:10C32000B3F1807F21D8B3F5803F8CBF0322022276
:10C330002B681A712868036804211B6998476B6889
:10C34000DB7A5A060ED46C4601E014F085FE2868AC
:10C35000036822465E6905210123B0479DF800303D
:10C360009B07F2D1012003B0F0BD28680368B72114
:10C370001B6998470422DBE79DF806C09DF807304B
:10C380008DF805C08DF80630002E7FF430AF6C6854
:10C39000002C7FF44BAF9DF804309DF80620C82B8D
:10C3A0000CD0012B16D1BCF1400F5AD000236B608A
:10C3B000002003B0F0BD00246C6034E7BCF1400FF6
:10C3C000F4D1152A72D0162A6ED0172AEED13B4C22
:10C3D0006C602BE7EF2B0DD1BCF1600F51D0BCF19D
:10C3E000400FE3D1172A5BD0152A5BD0162ADDD186
:10C3F000334CEDE7042B0FD1BCF1030F39D0BCF166
:10C40000270F32D0BCF1480F37D0BCF1490FCDD146
:10C41000032ACBD12B4CDBE7EF2B03D1BCF1400F30
:10C42000E2D0C3E71F2BC1D1BCF1450F2DD0BCF129
:10C43000840FBBD1012AB9D1234CC9E7286803680E
:10C440006C465E69224601233521B0479DF80020E5
:10C450003FE703689C6901230DEB03023121A047EC
:10C460005CE7152AA2D1194CB2E7032A9ED1184CD9
:10C47000AEE7022A9AD1174CAAE7032A96D1164CA6
:10C48000A6E7152A92D1154CA2E7012A8ED1144CA9
:10C490009EE70368224601219C690223A0473DE7ED
:10C4A000104C95E7104C93E7104C91E7104C8FE738
:10C4B00040AA040040420F000090D0039CA9040051
:10C4C00014AA0400FCA904002CAA0400A8A90400D2
:10C4D000E4A90400D8A90400F0A90400C0A904003C
:10C4E00020AA0400CCA9040008AA040090A9040012
:10C4F00084A9040010B50446006820B103685B6895
:10C5000098470023636010BD406800B10068704721
:10C5100043683BB19A79187ADB7940EA024040EAF5
:10C52000032070476FF07F40704700BF4368DB7A9D
:10C53000C3F380125B0613D410B50068036882B0A1
:10C540000DF107025C6905210123A0479DF8073022
:10C5500013F0030F0CBF01220022104602B010BDE1
:10C560001046704770B5456882B02DB3EB7A5C0613
:10C57000C3F3801520D40446806800280E4620DBD3
:10C58000217B15F0B9F86368DB7A5A0619D5206863
:10C59000036806211B699847206803683203DB693A
:10C5A00020219847A368002B054605DB217B184610
:10C5B00081F0010115F0A0F8284602B070BD14F01A
:10C5C0004BFD206803680DF107025D690521012319
:10C5D000A8479DF807309B07D9D0F0E7D0F804C0F2
:10C5E000BCF1000F3CD02DE9F041044680680028E2
:10C5F00082B00E4617461D4604DB217B15F07CF801
:10C60000D4F804C09CF80B305A060FD401E014F0A3
:10C6100023FD206803680DF10702D3F8148005217B
:10C620000123C0479DF807309B07F0D120680368BD
:10C6300031463A461E6A2B46B047A368002B064691
:10C6400005DB217B184681F0010115F055F81EB974
:10C65000002002B0BDE8F081284602B0BDE8F081BC
:10C66000002070472DE9F047446882B0002C60D06C
:10C670000546806800280E469046994603DB297BD4
:10C6800015F03AF86C68E27AC2F3801352061CD5B2
:10C690002868036806211B699847286803683146A3
:10C6A0005C6A42464B46A0472868036804211B6920
:10C6B0009847A868002804DB297B81F0010115F068
:10C6C0001BF8484602B0BDE8F087B9F1000FF0D082
:10C6D0004F4613B10DE014F0BFFC286803680DF15C
:10C6E00007025C6905210123A0479DF807309B07DD
:10C6F000F1D12868036806211B699847F4B22868BD
:10C70000C4F580740268BC4228BF3C46D2F824A01D
:10C71000234642463146D04740B13F1BA044264401
:10C72000C7D06B68DB7AC3F38013D2E7A9EB0709A4
:10C73000BFE7A146484602B0BDE8F0870120704738
:10C74000394B994253D2394B994252D8384B99427E
:10C7500053D2384B994252D2A3F58213A3F2AC6361
:10C7600099424ED8A3F53A23313B99424BD8324BEC
:10C7700099424AD8314B994249D8314B994248D2D3
:10C78000A3F58E235F3B994245D8A3F56C33A3F5FF
:10C790003E73994241D82B4B994240D8A3F52B3395
:10C7A000A3F53473994226D8274B994239D8274BA1
:10C7B000994214D8264B994228BF102310D2002149
:10C7C000244AD2F8003623F0704323F0FF03C2F866
:10C7D0000036D2F800361943C2F8001670470F230E
:10C7E0005A1E01219140C9B241EA0371E8E71A4992
:10C7F000E6E70223F4E70D23F2E70323F0E704233F
:10C80000EEE70523ECE70623EAE70723E8E708233A
:10C81000E6E70923E4E70A23E2E70B23E0E70C233A
:10C82000DEE70E23DCE700BF0024F400A9C2A2006B
:10C8300000127A0000A86100FF083D00E2403600C7
:10C8400000D43000618F2500548D20007F841E00AD
:10C85000F0B81C000090024001000010F0B51F4B22
:10C8600090F9061090F9072053F8215053F82260F0
:10C8700090F9084090F90A700022114665F307010B
:10C8800053F8245090F9094066F30F2190F90B609A
:10C8900053F8244053F8270053F8263087B065F347
:10C8A000174164F31F618DF80D3040F203238DF8BA
:10C8B0000C000291ADF80E3001A8072311460A259D
:10C8C0000F24CDE9042201928DF812508DF8154005
:10C8D0008DF8163014F01EF807B0F0BDDCB204007D
:10C8E00014F0BAB810B582B00022084640F2011325
:10C8F0008DF80000114601246846ADF80230ADF80D
:10C9000004208DF8014014F09BF8034BC01AB0FAD4
:10C9100080F0400902B010BD0000AD0B70B50024DE
:10C9200082B001330E4640F20115214668468DF86B
:10C9300001308DF80060ADF80440ADF8025014F0FD
:10C940007FF8034BC01AB0FA80F0400902B070BD06
:10C950000000AD0B30B5104683B0002201330D4608
:10C9600040F20114014668468DF801308DF8005000
:10C97000ADF80420ADF8024014F062F8034BC01A81
:10C98000B0FA80F0400903B030BD00BF0000AD0B2D
:10C9900020290ED0D8290AD1012008B5114614F05B
:10C9A0000BF9054BC01AB0FA80F0400908BD002011
:10C9B00070470020F1E700BF0000AD0BF0B512F0AA
:10C9C000030683B014460F461D462CD1032D0CD907
:10C9D00025F0030631463A46204614F071F8214B03
:10C9E000984235D134443744AD1B15B9012003B00A
:10C9F000F0BD04F00302C2F10402AA4228BF2A4695
:10CA00004FF0FF33214601A801931AF097F93A46F7
:10CA100001A8042114F054F8124BC01AB0FA80F0A7
:10CA2000400903B0F0BDC6F104069E4228BF1E4671
:10CA300032464FF0FF33214601A801931AF07EF9E8
:10CA40003A4601A8042114F03BF8064B984202D064
:10CA5000002003B0F0BD002EFAD034443744AD1BA3
:10CA6000B4E700BF0000AD0B2DE9F04112F0030761
:10CA700082B014460E461D461FD1032D0CD925F059
:10CA8000030739463246204614F058F8244B9842A2
:10CA90000FD13C443E44ED1B1DB9012002B0BDE85E
:10CAA000F081324601A8042114F048F81C4B98424A
:10CAB00029D0002002B0BDE8F081C7F10408434549
:10CAC0000FD20A4601A8042114F038F8144B9842FA
:10CAD000EFD101A920462A461AF030F9002DDCD109
